:020000040800F2
:10A00000A0BE0120D5A20008754302086DA3000878
:10A01000918101085DD300082D7202080000000044
:10A02000000000000000000000000000ED5D0208DC
:10A03000110D010800000000514D02089D5F02084B
:10A040003BA300083BA30008F1600208194A02087C
:10A05000354A0208591401083BA3000845DE0008F0
:10A06000C1DE00083BA300083BA300083BA3000897
:10A07000F1440208CDD1000895480208BD4A020803
:10A080003BA300083BA300083BA300083BA3000838
:10A090003BA300083BA300083BA30008756102082E
:10A0A0008D6602083BA300081553020825530208D9
:10A0B000355302083BA300083BA300083BA300085C
:10A0C000D5500208E9500208F57002083BA30008C9
:10A0D000316D0108AD4C0208B54C0208BD4C0208B8
:10A0E000C54C0208A1140108BD140108D9140108C7
:10A0F000F5140108111501082D150108491501086D
:10A100006515010881150108A9150108D115010877
:10A11000F9150108211601084916010871160108F0
:10A12000991601083BA300083DDE0008396D0108BF
:10A13000416D0108FD5002083BA30008ED700208C4
:10A1400000F002F800F0B6F80AA090E8000C824493
:10A150008344AAF10107DA4501D100F0ABF8AFF270
:10A16000090EBAE80F0013F0010F18BFFB1A43F0F5
:10A170000103184760950200809502000A444FF0E1
:10A18000000C10F8013B13F0070408BF10F8014B56
:10A190001D1108BF10F8015B641E05D010F8016B9B
:10A1A000641E01F8016BF9D113F0080F1EBF10F8FF
:10A1B000014BAD1C0C1B09D16D1E58BF01F801CB22
:10A1C000FAD505E014F8016B01F8016B6D1EF9D5A5
:10A1D0009142D6D3704700000023002400250026BA
:10A1E000103A28BF78C1FBD8520728BF30C148BFFA
:10A1F0000B6070476E2900F0FF81702900F0E58246
:10A20000662926F0DD84652926F0DA84672926F0A0
:10A21000D784612926F0D68403681B0A28BF41F041
:10A220008001692900F0AC81642900F0A9817529B9
:10A2300000F0A6816F2900F07282782900F0B182C7
:10A24000E92901F05F81E42901F05C81F52901F041
:10A250005981EF2900F06F82F82900F0B08203687D
:10A26000DB0928BF41F08001632901F016817329C1
:10A2700001F01B81E32901F03981F32901F03E81CE
:10A28000002070471FB526F0E3FB9DE8030000F0B7
:10A2900037FE00F019FE04000020002125F014FF15
:10A2A000401C60600020002125F024FFE0601FBDFD
:10A2B00010B510BD01F079FC1146FFF7E3FF25F062
:10A2C0009EFA01F097FC03B4FFF7F2FF03BC1EF007
:10A2D00060F800001C4880474FF04021C86D20F016
:10A2E000404040F08042CA6540F00042CA6540F0FC
:10A2F0004042CA65C86D40F48000C86513484FF0FD
:10A30000402148654FF04021C86D20F04040C865AD
:10A310004FF00E000E4908804FF000000D490880F4
:10A320000D4880470D480047FEE7FEE7FEE7FEE7E1
:10A33000FEE7FEE7FEE7FEE7FEE7FEE7084809491D
:10A34000074A094B704700003D7801080010008162
:10A350000050004000600040B160020841A10008C8
:10A36000A0AE0120A0BE0120A0AE0120704669462B
:10A370001FF048F9FFF7FEFF7047000010B500F02E
:10A38000A3FD001D10BD00BF415D020070B5064673
:10A3900000F096FD056806F10B0020F00704B442BA
:10A3A0009CBF002070BD2B466A68BAB11068A042FD
:10A3B00010D304F1080188423CBF5068586007D3AD
:10A3C0005168101941601168091B016058601460E0
:10A3D000101D70BD13465268002AE7D12146284659
:10A3E00000F07AFD0028DED170BD70B50446051F6F
:10A3F00000F066FD0068002C14BF446870BD002C9E
:10A4000018BFAC423CBF20466468F8D301680A1804
:10A41000AA4218BF456003D12A680546114401606D
:10A4200028684119A1421CBF6C6070BD61686960F9
:10A4300021680844286070BD0A46014901F03AB815
:10A44000B80800207CB51D4616460C00009001D0CF
:10A450002044401E074B7B442A4669460190304603
:10A4600000F0F1FF05461CB10020694600F0FEFF38
:10A4700028467CBD1D1000000FB4044910B503AA86
:10A48000029801F017F810BC5DF814FBB808002022
:10A490000FB41CB5084B06AA7B446946009005988A
:10A4A00000F0D1FF04460020694600F0DFFF20469F
:10A4B0001CBC5DF814FB0000D10F000070B5044611
:10A4C00085690068C10601D5302600E02026C00756
:10A4D00007D070BDD4E9012130469047206A401C66
:10A4E00020626D1EF6D570BD70B504468569007892
:10A4F000C00707D170BDD4E9012120209047206A10
:10A50000401C20626D1EF6D570BD09684A0501D554
:10A5100040B27047C905FCD500B2704709684A05CA
:10A5200001D5C0B27047C905FCD580B2704770B57F
:10A530000C460546012A05D02878800600D5EA6930
:10A54000002302E0012305E05B1C934202D2E05CA1
:10A550000028F9D1A869E618C01AA861286A184429
:10A5600028622846FFF7AAFF04E0D5E9012114F884
:10A57000010B9047B442F8D32846FFF7B5FF70BDF2
:10A580002DE9F0410646002410687529314616A5CC
:10A5900010D0FFF7BAFF002802DA404213A507E007
:10A5A00031688A0701D512A502E0490704D511A533
:10A5B000012401E0FFF7B2FF00210A2206F124077F
:10A5C00009E0B0FBF2FCB0FBF2F302FB1C00303000
:10A5D00078541846491C0028F3D123462A463046B1
:10A5E000BDE8F04100F0C2BC000000002D000000FA
:10A5F0002B0000002000000011680268006A53056B
:10A6000001D508700AE0D30501D5088006E01306DD
:10A6100003D5C217C1E9000200E0086001207047BD
:10A620002DE9FF5F15468A460446DFF8AC80F84402
:10A630000027D8E900103E46CDE9001010E03AF8B6
:10A6400016106A4602A800F09BFF411C07D0217833
:10A65000890603D5E269391891420DD80744761C62
:10A660002078800602D5E069B84205DDAE42E6DB1F
:10A670003AF816000028E2D1A069C01BA06120466C
:10A68000FFF71CFFD8E90010CDE90010002017E00B
:10A690003AF818106A4602A800F072FFB0F1FF3FC6
:10A6A00081460BD000250DF1080B05E0D4E901210E
:10A6B0001BF8050090476D1C4D45F7D308F10100CC
:10A6C000B0428046E4DB206A384420622046FFF72F
:10A6D0000BFFBDE8FF9F00006E86020030B4002132
:10A6E00000F1240408E002F00705D208303542EA00
:10A6F0004372DB086554491C52EA0305F3D1046830
:10A70000002310A2250707D5A40600D421B1C469EF
:10A7100001230DA2641EC46130BC00F027BC10B53B
:10A72000044621461068FFF7F9FE02462046BDE8C0
:10A7300010400023D2E7D21D22F00701D1E9002307
:10A74000CCE700000000000030000000F0B40D462F
:10A750000188090502D5214C7C4402E01F4C7C4451
:10A760000E34002100F1240608E002F00F07120960
:10A77000E75D42EA03721B097754491C52EA03075A
:10A78000F3D102780023120704D5702D06D009B149
:10A79000022311342246F0BC00F0E8BB0123103440
:10A7A000F8E770B504460D4621461068FFF7B6FE7F
:10A7B000024629462046BDE870400023C6E7D21D68
:10A7C00022F00703D3E90023C0E70368126843F0CF
:10A7D000200303600823C3610023B7E74C85020010
:10A7E0002DE9F05F894604464FF0000ADFF874B1A6
:10A7F000FB44C0F820A02046E1688847002874D0B8
:10A80000252806D0D4E901219047206A401C206207
:10A81000F1E700265F462046E16888472028054684
:10A8200007DB312D05D2781910F8200C08B106434A
:10A83000F1E7B00701D526F00406C4F81CA00027F4
:10A84000C4F818A02A2D09D028461DF069FD38B398
:10A8500004EB8708303DC8F8185019E059F8041B7C
:10A86000204604EB87029161E1688847012F054685
:10A8700018D1E069002820DA26F020061DE0D8F87B
:10A88000180000EB800005EB40003038C8F81800D5
:10A890002046E168884705461DF042FD0028EED1BC
:10A8A000012F0AD02E2D08D12046E16888477F1C51
:10A8B0000546022F46F02006C4DBA069002803DA13
:10A8C000404246F00106A061F00701D026F01006D4
:10A8D0006C2D0BD0682D09D04C2D39D06A2D35D078
:10A8E000742D35D07A2D33D016E038E0E1682F464C
:10A8F00020468847B842054609D16C2F26D04FF430
:10A900008060E168064320468847054604E06C2FD6
:10A910001AD04FF4807006430DB3A5F141001928F9
:10A9200002D8203546F400664A462946204626606D
:10A930004E46FFF75FFC80B101280BD0F61D26F0D4
:10A94000070000F1080956E74020E4E78020D8E737
:10A950000020D6E706F104094DE7284652E7206AB1
:10A96000BDE8F09FDC84020030B505460B462A4660
:10A9700013F8014B12F8010B08B1A042F8D01CB13A
:10A98000002802D06D1CF1E7284630BD40EA0103E3
:10A9900010B59B070FD1042A0DD310C808C9121F88
:10A9A0009C42F8D020BA19BA884201D9012010BDC2
:10A9B0004FF0FF3010BD1AB1D30703D0521C07E08F
:10A9C000002010BD10F8013B11F8014B1B1B07D1F3
:10A9D00010F8013B11F8014B1B1B01D1921EF1D164
:10A9E000184610BD10B5431C02E010F8011B71B1F0
:10A9F0008107FAD14FF0013202C88C1A8C4314EA55
:10AA0000C211F9D0C01A0A0603D0C01E10BDC01A68
:10AA100010BD0A0401D0801E10BD0902FCD0401EEA
:10AA200010BD032A40F2308010F0030C00F01580B6
:10AA300011F8013BBCF1020F624498BF11F801CB41
:10AA400000F8013B38BF11F8013BA2F1040298BFA6
:10AA500000F801CB38BF00F8013B11F0030300F010
:10AA60006780083AC0F0088051F8043B083A51F872
:10AA700004CBA0E80810F5E7121D5CBF51F8043BB9
:10AA800040F8043BAFF30080D20724BF11F8013B2C
:10AA900011F801CB48BF11F8012B24BF00F8013B8E
:10AAA00000F801CB48BF00F8012B7047431A28BFBC
:10AAB0009A427FF6B6AF032A1044114440F2268032
:10AAC00010F0030F1EBF11F8013D521E00F8013DAA
:10AAD00010F0030F7FF4F6AF11F0030300F083854D
:10AAE000083AC0F00B8051F8043D083A51F804CD03
:10AAF00040F8043D40F804CDFFF7F3BF121D5CBFE2
:10AB000051F8043D40F8043DAFF30080D20724BF64
:10AB100011F8013D11F801CD48BF11F8012C24BFF7
:10AB200000F8013D00F801CD48BF00F8012C704746
:10AB300010B5203AC0F00B80B1E81850203AA0E8D8
:10AB40001850B1E81850A0E81850BFF4F5AF5FEA0C
:10AB5000027C24BFB1E81850A0E8185044BF18C9BF
:10AB600018C0BDE810405FEA827C24BF51F8043B66
:10AB700040F8043B08BF7047D20728BF31F8023BBA
:10AB800048BF11F8012B28BF20F8023B48BF00F84E
:10AB9000012B704702F0FF0343EA032242EA02421C
:10ABA00000F002B84FF000020429C0F0128010F04B
:10ABB000030C00F01B80CCF1040CBCF1020F18BF99
:10ABC00000F8012BA8BF20F8022BA1EB0C0100F02C
:10ABD0000DB85FEAC17C24BF00F8012B00F8012BFF
:10ABE00048BF00F8012B70474FF0000200B5134634
:10ABF00094469646203922BFA0E80C50A0E80C509D
:10AC0000B1F12001BFF4F7AF090728BFA0E80C504D
:10AC100048BF0CC05DF804EB890028BF40F8042B46
:10AC200008BF704748BF20F8022B11F0804F18BFB3
:10AC300000F8012B704710B5044610F0030F08BF51
:10AC400011F0030F40F015804FF0013E121FC0F2CB
:10AC50000E8051F8043BA3EB0E0C2CEA030C1CEA0B
:10AC6000CE1C08BF40F8043BF0D0A1F1040102F172
:10AC70000402521E08DB11F8013B002B00F8013BD7
:10AC8000F7D11146FFF78EFF204610BD4FF0013C73
:10AC900050F8042B51F8043B9A4221D1A2EB0C034B
:10ACA000934313EACC1317D150F8042B51F8043B0B
:10ACB0009A4215D1A2EB0C03934313EACC130BD1A8
:10ACC00050F8042B51F8043B9A4209D1A2EB0C0333
:10ACD000934313EACC13DBD04FF00000704700BF62
:10ACE000D01A01BAB1FA81F101F0180122FA01F08B
:10ACF000CB40C1F12001DBB2C0B2C01A2CFA01F383
:10AD0000D11A914311EAC311E6D1704710B5036817
:10AD10001C1404EB21449BB289B2194494FBF2F356
:10AD200002FB134394FBF2F401EB034393FBF2F1B8
:10AD300002FB113193FBF2F301E05B1E1144002989
:10AD4000FBDB016003EB044010BDF0B504464FF09F
:10AD5000FF3585B00068049060680290A068039099
:10AD6000E068019020690090666906F18040B0F1CA
:10AD7000004F7CD83C22002104A8FFF7C7FF3C22EB
:10AD8000014602A8FFF7C2FF1822014603A8FFF7F9
:10AD9000BDFF411E40F2B55201A8FFF7B7FF0C22DC
:10ADA000074668460021FFF7B1FF414B00EB8700E3
:10ADB000304400267B4411E0511A01910099491C4E
:10ADC0000229009102D00C2908D105E0810705D0A5
:10ADD0000199491C019101E0401C00960099019ADB
:10ADE000595C9142E8DD0099012906D11C2A04D161
:10ADF000810702D00221CDE90016A0F146018B297E
:10AE00003CD2DDE90061002202E09F5C521C394423
:10AE1000B242FADB012E02DD820700D0491E40F269
:10AE2000B55340F26D16C21700EB927292105A435E
:10AE300000F0030303FB062283070A4400D1521EDD
:10AE4000039E02EB4203049F06EBC303029EC3EB87
:10AE5000031306EB8303174E33441E149BB2C6EB59
:10AE60000616C3EB0313B60007EB830300E005E00F
:10AE700006EB134666F31F43360C02D0284605B096
:10AE8000F0BD80C4029E40C4039E40C4019E761C57
:10AE900044F80C6B009E44E902600720521C92FBB0
:10AEA000F0F600FB162084E823001846E7E70000D0
:10AEB000297F0200A039CEFD704770477047704768
:10AEC0000048704744AE0120004870475CAE012046
:10AED000704770477047704738B504460A460020EF
:10AEE0006946AFF30080002808BF38BD02460099CC
:10AEF000204600F0A7FB012038BD012000F04EBE27
:10AF0000F8B5AFF30080054600200C46102000BFC6
:10AF10000646A819A0420DD9324669460020AFF373
:10AF20000080070008BF00F039FE0098A04218BF5B
:10AF30000546C419FFF7C4FF05600746F01D20F061
:10AF400007004619284600F00AF8B44208BFF8BDC9
:10AF5000A21B31463868BDE8F84000F073BB002101
:10AF60000160C0E901107047102070472DE9F047DB
:10AF70000D4699469246044600F124080168880669
:10AF800004D5E06921F01001216000E00120A84211
:10AF900001DD471B00E00027A1697A1902EB0900D7
:10AFA000081AA0612078C00602D42046FFF786FA6E
:10AFB000002608E0D4E901211AF806009047206A2B
:10AFC000401C761C20624E45F4DB2078C0060AD572
:10AFD0002046FFF773FA06E0D4E9012130209047BC
:10AFE000206A401C2062381EA7F10107F4DC07E04C
:10AFF000D4E9012118F805009047206A401C20621E
:10B00000281EA5F10105F3DC2046FFF76DFA207834
:10B01000000602D50220BDE8F0870120FBE770475B
:10B020002DE9FF4F0C461E464FF0FF378BB0D2E99B
:10B030000001DDF860800A908A46C1F30A5505B91F
:10B040003D460021084625F0ABFDBAF1000F00F4A3
:10B05000400005DA00EB80004FF4400101EA5000A7
:10B060004FEA9059B9F1010F00DDB9460A9850EA4C
:10B070004A000ED044F61050A5F2FF3545432F1478
:10B08000B8F1000F1ED07542291E1EDDC9F1000265
:10B090001CE0B8F1010F4FF0000001D0302103E0B7
:10B0A000F24305E02154401CB042FBDB3046002255
:10B0B000002121540B99C1F80880C1E900200FB08C
:10B0C000BDE8F08FBD1B6D1CDEE74A4600DA694221
:10B0D00006A800F0EDFC06AB93E8070003AB83E89D
:10B0E000070050460A9900F033FE8DE80700A0F5EE
:10B0F00000501F3800900398002D0ADD42F21F0116
:10B100004A460844002303A90390684601F09CF8CE
:10B1100009E0A0F500504A461F38002303A9039018
:10B12000684601F0A6F88DE807000004000C03D083
:10B130004FF0FF30410800E01046B8F1000F03D097
:10B140000022009215461EE0751E05D400F094FA08
:10B15000303262556D1EF9D5B3460122084302D044
:10B1600000227F1C04E02078302801D100227F1EBD
:10B17000002A099784D01DE0112D07DA00F07CFA2F
:10B18000303262556D1C50EA0102F5D1084302D0FD
:10B190000098C8B10EE00021681E05E0235C625CE7
:10B1A00063542254401E491C8142F7DBAB46A81B66
:10B1B000401E0990002004F80B000B98099AC0F873
:10B1C0000880C0E9002B7AE711264FF0000857E706
:10B1D0002DE9F04F88460446D21D22F0070191B0B8
:10B1E000D1E90001CDE90A011CF0D2FA02460B9820
:10B1F000C00F01D02D2007E02068810701D52B204A
:10B2000002E0202101EAC000032A099001D0072AA8
:10B2100005DB03464146204600F00AFC0BE120789E
:10B22000800601D5E06900E00620B8F1650F81468F
:10B2300006D0B8F1660F18D0B8F1670F70D131E0C1
:10B240000020B9F1110F009001DB112301E009F199
:10B2500001030AAA01A90CA8FFF7E2FEDDE90C70C0
:10B26000002609F10105834647E001204B46009086
:10B270004FF000470AAA01A90CA8FFF7D1FEDDE9AB
:10B280000DB00C995D46002610B909F101000D18AA
:10B29000B9EB050003D4C0F1FF3609F10105A5EBB8
:10B2A00009002BE0B9F1010F01DA4FF0010900208C
:10B2B000B9F1110F0090484601DD112300E003466B
:10B2C0000AAA01A90CA8FFF7ABFEDDE90C704D46F8
:10B2D00000268346207800070AD4AB4500DA5D4695
:10B2E00001A8012D04DD411911F8011C302907D0F6
:10B2F0004F4502DA17F1040F04DA012082460FE00D
:10B300006D1EEEE7002F02DCED1B3E4403E0781CCF
:10B31000A84200DD7D1CB81B00F1010A4FF0004778
:10B320002078000703D4AA4501DB4FF0FF3A002143
:10B33000B7F1004F0DF143088DF8431024D00220DF
:10B340002B23002F01DA7F422D230A21021EA0F1B8
:10B35000010000DC5FB197FBF1FC97FBF1F201FB10
:10B360001C7C17460CF1300C08F801CDEEE7A8F173
:10B37000010003702188090501D5452100E0652100
:10B38000A0F1010800F8011C09980FA9A1EB08071A
:10B39000FF1D00B10120411901EBEA70A169384499
:10B3A000081A401EA0612078C00602D42046FFF78C
:10B3B00085F8099828B1D4E901219047206A401CFA
:10B3C00020622078C00622D52046FFF777F81EE0DD
:10B3D000002E04DBB34502DD01A8805D00E03020D3
:10B3E000D4E901219047206A401C2062761CAAF112
:10B3F00001005FEA000A0AD1FFF766FDC068016834
:10B40000405CD4E901219047206A401C2062281E3C
:10B41000A5F10105DCDC07E0D4E9012118F8010BF6
:10B420009047206A401C2062381EA7F10107F3DC18
:10B430002046FFF759F8032011B041E601694A1C84
:10B4400002610878704700B58FB0CDE90131002165
:10B45000059105497944CDE9031011466846FFF787
:10B46000BFF90FB000BD0000E5FFFFFF0A6802F85A
:10B47000010B0A607047D1E900239A4202D2531CA3
:10B480000B601070704710B5436913B1AFF30080C3
:10B4900001E0FFF74CF8012010BD127800F1240103
:10B4A0000A7000224A700122EDE711684FF0FF3266
:10B4B000E9E70000074B70B50D467B44FFF7C3FF7B
:10B4C0000446284600F066FB10B14FF0FF3070BD17
:10B4D000204670BD8716020010B5436913B1AFF363
:10B4E000008001E0FFF79CF8012010BD128800F1F8
:10B4F000240182840022C2840122EDE711684FF00A
:10B50000FF32E9E72DE9F0418046D21D22F0070223
:10B510000025D2E90002F52915A614D0011E72F10A
:10B52000000106DA0023D0EB030063EB020211A650
:10B5300008E0D8F800108B0701D50FA602E04907F4
:10B5400001D50EA601251146002408F1240704E0C8
:10B5500000F092F830323A55641C50EA0102F7D1FB
:10B560002B46324621464046BDE8F041FFF7FEBC7F
:10B57000000000002D0000002B0000002000000053
:10B5800070B516460C460546FEF7F8FE036893F8BC
:10B590000101012806D0FF2C0FD8185D68B10120E9
:10B5A0002C7070BDD3F807013246214603F2071311
:10B5B00003442846BDE8704018474FF0FF3070BD87
:10B5C000431A28BF9A427FF6B3AA104410F0030F23
:10B5D00011441EBF11F8013D521E00F8013D10F04C
:10B5E000030F7FF4F6AF103AC0F00A8010B531E9CE
:10B5F0001850103A20E91850BFF4F9AFBDE81040D8
:10B60000530724BF31E9081020E9081044BF51F85E
:10B61000043D40F8043D12F0030F08BF7047D20705
:10B6200028BF31F8023D48BF11F8012C28BF20F88F
:10B63000023D48BF00F8012C7047000000487047E9
:10B640003CAE0120034640688C46002818BF884263
:10B650003CBF03464068F8D318681844884207D0B6
:10B660000CF1030020F00700001D411A521A014698
:10B67000081D0A60FEF7B9BE30B5B0F10A024FEA04
:10B68000900E71F100034EEA817EB0EB0E0061EB8B
:10B6900091014FEA101E4EEA017E10EB0E0041EBC5
:10B6A00011114FEA102E4EEA016E10EB0E0041EB25
:10B6B00011214FEA104E4EEA014E10EB0E0041EB05
:10B6C0001141401841F100014FEAD00040EA4170B9
:10B6D0004FEAD10110EB80054FEA810444EA9074EF
:10B6E00044EB01046D1944EB0404521BA3414FF0D9
:10B6F000000348BF0A3200D530BD401C41F10001B3
:10B7000030BD00001FB584B000200A9C06AB04AA1F
:10B7100002A90094AFF3008018B1DDE9020108B07E
:10B7200010BD0348204000F073FA00200146F6E700
:10B730000000207C2DE9F04F04460D46D21D22F07A
:10B74000070089B0D0E90097484639461CF020F838
:10B750000246F80F01D02D2307E02068810701D5AC
:10B760002B2302E0202101EAC0038DF820300BB129
:10B77000012000E00020032A824601D0072A04DBD2
:10B780002946204600F054F93FE12078800601D494
:10B790000D2500E0E569C7F30A560D2D49DA0021B1
:10B7A0004FEA175B084625F0FBF9002F00F4400034
:10B7B00007DA00EB80004FF4400100EBD07001EAA3
:10B7C00060008115012901DD4FF0FF3100224FEAB1
:10B7D000850CBCF1180F06D31346ACF118004FF0DE
:10B7E0008052C24003E04FF4801323FA0CF30CF1B3
:10B7F0000C0CBCF1200F04D3ACF1200C09FA0CF0B6
:10B8000001E007FA0CF000294FF0004801DD18B9FB
:10B810000FE00ED140450CD319EB02095F4121B96D
:10B82000404502D19F4329EA0209BBEB175F00D0D4
:10B83000761C2088000502D57B48784402E07A48CF
:10B840007844193808AA302302F80A30037C0AF138
:10B850000101002E0AF1020A53546A4602DC4FF03D
:10B86000300101E04FF031014FF001088DF8001078
:10B8700002D0A6F2FF3603E059EA470100D06B4E32
:10B88000002D02DC2178090704D54FF002082E2193
:10B890008DF80110C44600210BE0C7F303433F01BC
:10B8A000C35C491C6D1E02F80830052908F1010827
:10B8B00001DA002DF1DC00210CE000EB1973491CCA
:10B8C0001B786D1E082902F808304FEA091908F1A3
:10B8D000010801DA002DF0DC21688B0602D516E0A4
:10B8E000A8F10108E04505DD02EB080313F8013C6F
:10B8F000302BF5D0B8F1000F09DD02EB080313F887
:10B90000013C2E2B03D1090701D4A8F10108002D19
:10B9100005DD3E2102F808106D1E08F10108407C8B
:10B92000002E02F8080008F1010804DA2D20764202
:10B9300002F8080002E02B2002F808000A214FF468
:10B940007A70864208F101080BDB96FBF0F3303386
:10B9500002F8083096FBF0F308F1010800FB1366CB
:10B9600001E0642E0CDB642096FBF0F3303302F828
:10B97000083096FBF0F308F1010800FB136601E0C4
:10B980000A2E06DB96FBF1F0303002F8080008F1D1
:10B99000010896FBF1F001FB1060303002F808005E
:10B9A000A16908F1010808EB050202EB0A00081A78
:10B9B000A0612078C00602D42046FEF77FFD216AF0
:10B9C00008AE01EB0A00206204E0D4E9012116F878
:10B9D000010B9047BAF1010AF7D22078C00602D5D0
:10B9E0002046FEF76BFD6E4609E016F8010B3E2877
:10B9F0000FD0D4E901219047206A401C2062B8F1A1
:10BA00000108F2D22046FEF76FFD09B00320BDE821
:10BA1000F08F206A2844206203E0D4E9012130201D
:10BA200090476D1EEBD3F8E7C274020002FCFFFFE3
:10BA30002DE9F0411F46044603260168072A01F458
:10BA4000006004DB08B116A505E016A503E008B107
:10BA500015A500E015A521F010002060A069C01E0A
:10BA6000A0610FB1401EA0612046FEF727FD4FB137
:10BA7000D4E9012138469047206A401C2062C01C4E
:10BA8000206206E0206AFAE7D4E9012115F8010BEB
:10BA90009047761EF8D22046FEF726FDBDE8F081DD
:10BAA0004E414E006E616E00494E4600696E660062
:10BAB0002DE9F047814616468AB0354878440DC8CE
:10BAC0008DE80D0032487844801C03AC0DC884E832
:10BAD0000D0041F69B300844372190FBF1F290FBBA
:10BAE000F1F5A5F1800501FB12041B3C02D564426F
:10BAF000012000E00020DFF898A080460027FA44EB
:10BB0000AAF1BE0A0EE0E0070AD03246684607EB0B
:10BB1000470101230AEB810100F0ABFB8DE8070030
:10BB200064107F1C002CEED1194F7F44AE3F19E00A
:10BB3000E80715D007EB04100DF1180A90E80E0085
:10BB40008AE80E00C068F04201D198190890324688
:10BB5000012306A903A800F08CFB03AB83E80700D0
:10BB60006D10641C002DE3D14FF00103324669468D
:10BB7000B8F1000F03A802D000F066FB01E000F06E
:10BB800078FBC9E90001C9F808200AB0BDE8F087D0
:10BB9000D0720200007B00F08000704710B500F00A
:10BBA0003FF8BDE8104000F02EB87546FFF746FD9F
:10BBB000AE4605006946534620F00700854618B09A
:10BBC00020B5FEF7BBFBBDE820404FF000064FF06C
:10BBD00000074FF000084FF0000B21F00701AC46C2
:10BBE000ACE8C009ACE8C009ACE8C009ACE8C009E1
:10BBF0008D46704710B50446AFF300802046BDE87F
:10BC00001040FEF760BB002801D01CF0C2BB70479B
:10BC100010B500F047F8BDE81040FFF7F4BF000092
:10BC200010B5012805D0002103A000F021F8012063
:10BC300010BD09A1F8E7000053494752544D454D46
:10BC40003A204F7574206F662068656170206D65BD
:10BC50006D6F7279000000003A2048656170206DB8
:10BC6000656D6F727920636F7272757074656400B0
:10BC700070B505460C460A2000E06D1C1CF0C2FBA6
:10BC800035B128780028F8D102E0641C1CF0BAFB1A
:10BC900014B120780028F8D1BDE870400A201CF0CB
:10BCA000B1BB000010B5022803D0410103D50DA19E
:10BCB00012E0002010BD010101D50FA10CE0C10070
:10BCC00001D511A108E0810001D512A104E04000D6
:10BCD00001D513A100E0002115A0FFF7C9FF012045
:10BCE00010BD0000496E76616C6964204F7065720A
:10BCF0006174696F6E000000446976696465204272
:10BD000079205A65726F00004F766572666C6F77A6
:10BD100000000000556E646572666C6F770000006D
:10BD2000496E657861637420526573756C740000A8
:10BD30005349474650453A2041726974686D6574AD
:10BD4000696320657863657074696F6E3A200000DE
:10BD50005FEA400C08BF91F0000F4FEA8C234FEAD6
:10BD6000C12243EA51514FEA1C5018BF00F5F04080
:10BD70004FEA300018BF41F000415FEA6C5C00F010
:10BD80002980BCF1FF3F08BF40F080407047130C92
:10BD900006BF12044FF0100C4FF0000C130E04BF3E
:10BDA00012020CF1080C130F04BF12010CF1040C69
:10BDB000930F04BF92000CF1020CD30F04BF52008A
:10BDC0000CF1010C11464FF00002A0F11F00A0EB96
:10BDD0000C00704711F0004F08BF704731F0004170
:10BDE0003FF4D5AF0B0C06BF09044FF0100C4FF019
:10BDF000000C0B0E04BF09020CF1080C0B0F04BF62
:10BE000009010CF1040C8B0F04BF89000CF1020C2A
:10BE1000CB0F04BF49000CF1010CCCF12003A0EBC7
:10BE20000C0022FA03F302FA0CF241EA030100F1DA
:10BE30000100704720F07F4C80EA030023F07F4729
:10BE4000ACEB070303F57C5300F0004003F1FF0364
:10BE50002DE980494FEA154B09B44FEA144325EA0E
:10BE60000B4E24EA03480FF2042606EB1327490879
:10BE70003E785FEA320203FB0667C7F5000707FB5F
:10BE800006F64FEA54374FEAD64606F1020607FB9C
:10BE9000066CCCF1005C4FEA1C472CEA074C07FB10
:10BEA00006F40CFB06F504EB15464FEA961634BF74
:10BEB00000204FF000404FEAD13706FB07FC4FEA65
:10BEC0001C4C0CFB0BF7D21B03FB0CF761EB0701BF
:10BED0000CFB0EF7B0EB074072EB17420CFB08F7B8
:10BEE00034BFA2EB0742B2EB074261EB17414FEAC6
:10BEF0000C444FEA910706FB07FC4FEA1C4C0CFB75
:10BF00000BF7B0EBC74072EB573203FB0CF734BFB3
:10BF1000A2EBC742B2EBC74261EB57310CFB0EF705
:10BF2000B0EBC70072EB57720CFB08F734BFA2EB03
:10BF3000C702B2EBC70261EB5771039F4FEA816101
:10BF400041EA921104EBCC044FEAD1374FEA826206
:10BF500006FB07FC42EA90124FEA80604FEA1C4C55
:10BF60000CFB0BF7D21B03FB0CF761EB07010CFB7F
:10BF70000EF7B0EB074072EB17420CFB08F734BF2B
:10BF8000A2EB0742B2EB074261EB17414FEA8C5537
:10BF90004FEA910704EB9C2406FB07FC4FEA1C4C7C
:10BFA0000CFB0BF7B0EBC74072EB573203FB0CF7FF
:10BFB00034BFA2EBC742B2EBC74261EB57310CFB77
:10BFC0000EF7B0EBC70072EB57720CFB08F734BFEB
:10BFD000A2EBC702B2EBC70261EB577115EB4C2520
:10BFE0004FEA816141EA92114FEA82624FEAD1370A
:10BFF00042EA901206FB07FC44F100044FEA80601D
:10C000004FEA1C4C0CFB0BF7D21B03FB0CF761EB4C
:10C0100007010CFB0EF7B0EB074072EB17420CFB6D
:10C0200008F734BFA2EB0742B2EB074261EB1741BE
:10C0300015EB1C154FEA813141EA92414FEA8232F9
:10C0400042EA90424FEA80304FEA0C7644F1000415
:10C0500048EA03434EEA0B484FF0000EB2EB080CDF
:10C0600071EB030724BF624639464EEB0E0E4FF0CC
:10C07000000B0018524149414BEB0B0BB2EB080C83
:10C0800071EB03077BF1000B24BF624639464EEB90
:10C090000E0E4FF0000B0018524149414BEB0B0BB9
:10C0A000B2EB080C71EB03077BF1000B24BF624677
:10C0B00039464EEB0E0E51EA020718BF46F0010654
:10C0C00016EB0E7655F1000254F1000103D5BDE8E0
:10C0D0008901BDE80088BDE88901BDE80048B619BE
:10C0E000524141EB0101A3F10103704780807F7E43
:10C0F0007D7C7B7A797877767675747372717170DE
:10C100006F6E6E6D6C6C6B6A6A696868676666658F
:10C110006464636362616160605F5F5E5E5D5D5C1D
:10C120005C5B5B5A5A59595858575756565555558E
:10C130005454535352525251515050504F4F4F4EEE
:10C140004E4D4D4D4C4C4C4B4B4B4A4A4A4949493C
:10C15000484848474747474646464545454444447E
:10C16000444343434342424242414141002B9C46A7
:10C1700030D477002BD01CB54FEA370703B44FF00B
:10C1800010004FF01001BAF1000F06D0BCF1000F03
:10C19000DCBF40F0080040F0080124F001FD0FBCB6
:10C1A000BDE810400BF1010BBBF1010F08BF5FEAC6
:10C1B000170722BF12F1010211F101014FF00041F6
:10C1C00043F1000300F0004043EA00007047F9D358
:10C1D0005708D0E746EA064613F1400F4FEA1646E5
:10C1E0001FDD13F1200FDFBF16430A460021203365
:10C1F0005B42BED0C3F1200746EA064602FA07F7C3
:10C200004FEA164646EA0706C3F1200722FA03F270
:10C2100001FA07F721FA03F14FF0000342EA07029F
:10C22000A7E746EA020646EA06464FEA164646EA07
:10C230000106BCBF46EA0646360C4FF000034FF03D
:10C2400000024FF0000194E72DE9804C9A46934696
:10C2500070B491E8380007C831EA400C48BF34EAAE
:10C26000430C03D5FFF7E6FDFFF780FFF0BCBDE808
:10C27000008C2DE9804C9A46934670B491E83800C2
:10C2800007C810F0804F08BF13F0804F03D100F0B3
:10C2900005F8FFF76BFFF0BCBDE8008C20F07F478E
:10C2A00080EA030023F07F4C07EB0C03A3F57C53DB
:10C2B00000F00040A3F1FE0392F0000F00F0B38005
:10C2C00095F0000F00F077802DE901494FEA114009
:10C2D0004FEA144621EA004800FB06FC24EA064720
:10C2E00008FB06F607FB08F800FB07F718EB064803
:10C2F0004CEB164C4FEA124B18EB07484FEA154629
:10C300004CEB174022EA0B4E0BFB06FC25EA0647D6
:10C310000EFB06F607FB0EFE0BFB07F71EEB064EA9
:10C320004CEB164C4FF000061EEB074E4CEB174B38
:10C3300018EB0B0840F1000018EB0E0B58EB00084F
:10C3400040F100008F1A4FF000013CBFC943661B4B
:10C3500014BFB5EB040C00213CBFC943F61B4FEAE8
:10C3600017444EEA8E0E27EA04454FEA1C4704FBA9
:10C3700007622CEA074C05FB07F70CFB05F604FBEC
:10C380000CFC16EB074642EB174216EB0C4642EB51
:10C390001C421BEB060658EB0202414146EA9E0690
:10C3A00001D5BDE80189B619524141EB0101A3F164
:10C3B0000103BDE801894FEA14454FEA114724EA19
:10C3C000054621EA074C05FB07F406FB07F70CFBC3
:10C3D00006F105FB0CFC11EB074144EB17444FEA57
:10C3E000124711EB0C4144EB1C4422EA074C05FBBD
:10C3F00007F206FB07F70CFB06F605FB0CFC16EB39
:10C40000074642EB174216EB0C4642EB1C456A18F6
:10C4100054F1000148BF7047B619524141EB010188
:10C42000A3F10103704795F0000F37D04FEA114296
:10C430004FEA144721EA024624EA074C02FB07F1BF
:10C4400006FB07F70CFB06F402FB0CFC14EB07449D
:10C4500041EB17414FEA154714EB0C4441EB1C41EB
:10C4600025EA074C02FB07F506FB07F70CFB06F66F
:10C4700002FB0CFC16EB074645EB174516EB0C468A
:10C4800045EB1C42121951F1000148BF7047B61923
:10C49000524141EB0101A3F1010370474FEA1445FA
:10C4A0004FEA114724EA054621EA074C05FB07F14C
:10C4B00006FB07F70CFB06F24FF0000605FB0CFC31
:10C4C00012EB074241EB174112EB0C4251EB1C41BE
:10C4D00048BF7047921841EB0101A3F10103704777
:10C4E00010B504480078012801D107F0D5FA07F00B
:10C4F000C7FA10BD1C07002010B506F0A7FD28B92B
:10C500000020034981F8E500C1F8E80010BD0000F3
:10C510007C25002010B50B4890F8E40080B10A4853
:10C52000B0F8480002280BD008A0FDF7A5FF0120B5
:10C53000044981F8E50091F8E400E83106F076FD61
:10C5400010BD00007C250020942A00204150505F3F
:10C550004465665365740A0010B507F049FF074843
:10C5600090F84A00012803D00448807D012801D0BA
:10C5700009F056F909F03EFC10BD0000942A002095
:10C5800010B509F0E1F940B9094890F8D40020F05D
:10C590000800074981F8D40008E0054890F8D40065
:10C5A00020F008000830024981F8D40010BD0000D6
:10C5B0007C25002010B54FF4FA641848017818A0C3
:10C5C000FDF75AFF15480078AD2808D01A4890F8B2
:10C5D000900038B10021282007F072FC02E0022010
:10C5E0001EF040F90FE000BF012004F0BDFB00BFCA
:10C5F00011F0AAFD104890F8EC00012803D10FA01B
:10C60000FDF73AFF03E0201EA4F10104EBD100BFC7
:10C6100014B90FA0FDF730FF10BD00001C0700206B
:10C6200057616B655570536F757263652048455847
:10C630002025580A000000007C2500204765742052
:10C640006261636B20626174206F6B210A000000DD
:10C65000476574206261636B206261742045726F6C
:10C660007272210A0000000010B55C48B0F8881012
:10C670005BA0FDF701FF5948B0F88A1060A0FDF7F4
:10C68000FBFE5648B0F8880040F2B221884204DA36
:10C690005248B0F88800642812DC5048B0F88A008C
:10C6A00040F2B221884204DA4C48B0F88A0064288B
:10C6B00006DC5BA0FDF7E0FE022009F0D5FE05E0F8
:10C6C0005BA0FDF7D9FE012009F0CEFE4348B0F88B
:10C6D000880064280BDC59A0FDF7CEFE47200AF045
:10C6E000F1FA00BF40F6C41004F03EFB00BF3B4827
:10C6F000B0F88A0064280BDC57A0FDF7BDFE482087
:10C700000AF0E0FA00BF40F6C41004F02DFB00BFB1
:10C710003248B0F8880040F28A2188422BDC2F484A
:10C72000B0F88A00884226DC2C48B0F888006428DB
:10C730000BDD51A0FDF7A0FE49200AF0C3FA00BFAF
:10C7400040F6B83004F010FB00BF2448B0F88A006F
:10C7500064280BDD4FA0FDF78FFE4A200AF0B2FAE5
:10C7600000BF40F6B83004F0FFFA00BF01201B49BB
:10C7700081F8ED0010BD1948B0F8880040F2B221F0
:10C78000884210DA1548B0F8880064280BDD49A00B
:10C79000FDF772FE4B200AF095FA00BF40F6B83064
:10C7A00004F0E2FA00BF0D48B0F88A0040F2B2216E
:10C7B000884210DA0948B0F88A0064280BDD42A0EC
:10C7C000FDF75AFE4C200AF07DFA00BF40F6B83063
:10C7D00004F0CAFA00BF00BFCCE700007C250020AF
:10C7E00073745F496E707574496E666F2E75704212
:10C7F0006174426174746572793A25640A000000BC
:10C8000073745F496E707574496E666F2E646F77CE
:10C810006E426174426174746572793A25640A00EB
:10C8200065436F6C6F72477265656E0A00000000A9
:10C8300065436F6C6F725265640A000065566F69DC
:10C840006365446972506C65617365496E70757497
:10C8500055704261740A000065566F6963654469EA
:10C8600072506C65617365496E707574446F776E54
:10C870004261740A0000000065566F69636544698F
:10C880007255704261744C6F7743616E6F74576F6D
:10C89000726B0A0065566F696365446972446F770D
:10C8A0006E4261744C6F7743616E6F74576F726B39
:10C8B0000A00000065566F696365446972557042ED
:10C8C00061744C6F770A000065566F69636544694F
:10C8D00072446F776E4261744C6F770A00000000FB
:10C8E00010B509F059FE10BD10B50AF009FA1AA0EA
:10C8F000FDF7C2FD06F08AFB1FA0FDF7BDFD09F0A4
:10C9000013F823A0FDF7B8FD09F02CFE28A0FDF7D1
:10C91000B3FD08F081FF00F0B5F800F057F92CA046
:10C92000FDF7AAFD09F09BFD30A0FDF7A5FD09F07C
:10C9300043FE36A0FDF7A0FD06F08AFB3BA0FDF705
:10C940009BFD09F0E5FF40A0FDF796FD06F056FBC4
:10C9500045A0FDF791FD10BD48414C5F566F6963DE
:10C96000655F456E746572536C656570436F6E6686
:10C97000696728293B0A000048414C5F416C61729D
:10C980006D5F536574496E7465727270740A00004D
:10C9900048414C5F46696E6765725F456E746572AB
:10C9A000536C656570436F6E6669670A000000002E
:10C9B00048414C5F4B65795361636E5F456E7465AA
:10C9C00072536C656570436F6E6669670A0000009C
:10C9D00048414C5F466163655F456E746572536C98
:10C9E000656570436F6E6669670A000048414C5F79
:10C9F0004B65794C696768745F456E746572536CFA
:10CA0000656570436F6E6669670A000048414C5F58
:10CA1000506F7765725F5265736572766564536CAB
:10CA2000656570436F6E6669670A000048414C5F38
:10CA3000434F4D4D5F456E746572536C6565704331
:10CA40006F6E6669670A000048414C5F53746F72ED
:10CA50006167655F456E746572536C656570436FA1
:10CA60006E6669670A00000048414C5F4164635F7D
:10CA7000456E746572536C656570436F6E66696769
:10CA80000A00000010B50648B0F84800022803D19B
:10CA9000002008F07FFA02E0012008F07BFA10BDC8
:10CAA000942A002010B509F06FFD09F091FD04F003
:10CAB00043F909F0CFFDFFF713FD0AF027F909F05C
:10CAC00095FB20A0FDF7D8FC09F07AFD09F07CFD6C
:10CAD0001F4881691FA0FDF7CFFC24A0FDF7CCFC07
:10CAE00022A0FDF7C9FC09F0C9FD05F0FDFF0120FA
:10CAF000224981F8910021F023F806F08BFA2048B2
:10CB0000047821461FA0FDF7B7FC22A0FDF7B4FC76
:10CB100025A227A128A01CF0C3FE00F069F8FFF7AA
:10CB20001BFD00F033FB09F019FDFFF729FD00F0B4
:10CB30000FFBFFF7E1FCFFF73DFD00F073F900F09C
:10CB400063F910BD5354415254210D0A00000000F6
:10CB50000010004043434D2D3E525443434647315D
:10CB6000323D3078253034780D0A000056332E31AE
:10CB70003120485820202040400D0A007C2500200C
:10CB8000A44000407273745F736F75726365313ACD
:10CB900025640A0053797374656D20706F77657230
:10CBA0007570206F6B210A0056302E312E30000038
:10CBB00056312E302E30000063636D3432303273C4
:10CBC0005F64656D6F5F65666D00000010B50748B6
:10CBD00090F84A00012806D016F0D8FC18B903488E
:10CBE000807D012801D008F01BFE10BD942A002092
:10CBF00010B509F0E3FD80B100203A4981F89000BA
:10CC0000394981F83D00084690F83D00354981F8E2
:10CC1000E40036A0FDF730FC62E040A0FDF72CFCFC
:10CC20003148018B49A0FDF727FC2F48008B0128D4
:10CC300004D100202B4981F82E0003E0012029496E
:10CC400081F82E000120274981F890002648B43051
:10CC500009F0D6FE244890F8EE00012808D02248BA
:10CC600090F8EE00022803D001211F4880F8EE1052
:10CC70001D48B0F8CD00FF2809D01B48B0F8CD0002
:10CC8000552808D01848B0F8CD00012803D0552108
:10CC90001548A0F8CD10144890F8CF00032803DC05
:10CCA000114890F8CF0018B901210F4880F8CF1033
:10CCB0000D48B0F8CD1030A0FDF7DEFB0A4890F823
:10CCC000CF1036A0FDF7D8FB0749C331A1F10F0003
:10CCD00006F0B0FE044890F83D00024981F8E400F7
:10CCE00010BD00007C250020942A002048414C5FA4
:10CCF00053746F726167655F43686B537973446106
:10CD000074612829206553746F726167655374617B
:10CD10007475734572726F720A00000048414C5F6F
:10CD200053746F726167655F43686B5379734461D5
:10CD300074612829206553746F726167655374614B
:10CD4000747573537563636573730A0073746F72DC
:10CD5000616765536176652E7379734461742E6CD7
:10CD60006F63616C41646D696E526567466C6167A3
:10CD700020583A25580A000073746F726167655332
:10CD80006176652E68617264776172654461746171
:10CD90002E6469723A25580A0000000073746F729D
:10CDA000616765536176652E68617264776172654B
:10CDB000446174612E746F727175655B305D3A25E4
:10CDC000580A00000D480068401C0C4908600C48D7
:10CDD00090F8E40080B10B48B0F8480002280BD06E
:10CDE000074890F8E500012806D10548D0F8E8008A
:10CDF000401C0349C1F8E8007047000018070020F4
:10CE00007C250020942A002010B509F0C9FE0020DE
:10CE100002490860024809F0BDFE10BD1807002055
:10CE2000C5CD000810B50024514890F8ED00012848
:10CE300003D100201DF016FD10BD4D4890F8900064
:10CE400050B94C480078512806D04BA0FDF714FB90
:10CE500005201DF007FD88E056480078062806D119
:10CE600055A0FDF709FB02201DF0FCFC7DE05148B8
:10CE7000007804281BD007DC78B1012821D00228D3
:10CE80003CD0032854D12FE0072850D0AD2820D023
:10CE9000AE2822D0B1284BD13CE051A0FDF7ECFAEE
:10CEA000012411F0EBFC07201DF0DCFC4AE056A049
:10CEB000FDF7E2FA012411F0E1FC07201DF0D2FC9D
:10CEC00040E001245AA0FDF7D7FA64201DF0CAFC07
:10CED00038E061A0FDF7D0FA34E069A0FDF7CCFAA4
:10CEE00065201DF0BFFC2DE0FFF714FB01246FA0AF
:10CEF000FDF7C2FA07201DF0B5FC23E0FFF70AFB9F
:10CF0000012475A0FDF7B8FA11F0B8FC07201DF058
:10CF1000A9FC17E07AA0FDF7AFFA0020144981F8C8
:10CF2000E500C1F8E80068201DF09CFC0AE009E07B
:10CF300001247FA0FDF7A0FA11F0A0FC07201DF04E
:10CF400091FC00BF00BF012C0FD1002108483430F4
:10CF50000BF094FB48B103207C4948700120087510
:10CF600013F096FA5F201DF07DFC00BF64E700001F
:10CF70007C2500200C0000204150505F53797357EE
:10CF8000616B655570546F4D656E7520666E5F4AB6
:10CF9000756D704D656E7528656E756D5F4D656E4E
:10CFA000755F53746F726167654572726F72293B6A
:10CFB000200A00001C0700204150505F537973572E
:10CFC000616B655570546F4D656E75206557616B6B
:10CFD000655570536F75726365416C61726D0A00BF
:10CFE0004150505F53797357616B655570546F4D65
:10CFF000656E75206557616B655570536F7572630B
:10D00000654E756C6C200A004150505F5379735720
:10D01000616B655570546F4D656E75206557616B1A
:10D02000655570536F757263654B65790A00000032
:10D030004150505F53797357616B655570546F4D14
:10D04000656E75206557616B655570536F757263BA
:10D0500065504F520A0000004150505F537973579A
:10D06000616B655570546F4D656E75206557616BCA
:10D07000655570536F757263654261636B200A007A
:10D080004150505F53797357616B655570546F4DC4
:10D09000656E75206557616B655570536F7572636A
:10D0A00065436174457965200A0000004150505F76
:10D0B00053797357616B655570546F4D656E75206C
:10D0C0006557616B655570536F7572636546696E20
:10D0D000676572200A0000004150505F5379735712
:10D0E000616B655570546F4D656E75206557616B4A
:10D0F000655570536F757263654972200A000000B0
:10D100004150505F53797357616B655570546F4D43
:10D11000656E75206557616B655570536F757263E9
:10D1200065416374697665446566656E73650A007A
:10D130004150505F53797357616B655570546F4D13
:10D14000656E75206F74686572200A006C26002079
:10D1500010B50548817E05A0FDF78EF90249887E4D
:10D1600009F0E0FD10BD0000942A002073746F7276
:10D17000616765536176652E7379734461742E76A9
:10D180006F69636553773A25640A000010B50A4851
:10D1900009F098FA08484438806D40F2E4718842FA
:10D1A00008DA06A0FDF768F9074809F06BFA0248AB
:10D1B00009F088FA002010BDC02500207265736553
:10D1C00074205254430A000080700B5E08B51F485B
:10D1D000006A00F00100E8B100BF1C48006A40F09E
:10D1E00001001A4908620846006A0090009800F0A1
:10D1F00001000028F1D100BF1448006940F480709C
:10D2000012490861084600690090009800F4807097
:10D210000028F1D10E48006800F40060A8B10C4865
:10D22000006800F4002080B100BF0948006840F0A9
:10D23000FF004FF04021C1F89000054800680090C1
:10D24000009800F008000028EFD108BD004003401E
:10D250009040004010B510480068407800F0100081
:10D2600098B950200C490968487000BF0A48006806
:10D27000C07800F040004028F8D000BF06480068A1
:10D28000C07800F040000028F8D018F0C1FD002060
:10D290000249087010BD0000B8140020B01400202E
:10D2A0002DE9F04104460F4615461E4607F00100E1
:10D2B00030B10B48006B40F001000949086305E0FC
:10D2C0000748006B20F001000549086323463246F9
:10D2D00029464FF4A06003F07FFEBDE8F081000016
:10D2E0000010044010B5FFF7DDFB10BD10B515E0D0
:10D2F00009F040FC00B110BD10F080FF15F032FFC6
:10D3000015F0F0FC13F058F913F0AAFF0AF0EAFF49
:10D3100016F088FD10F018FF16F0CAFFE8E70000CD
:10D3200000200149086070473C25002010B50246E6
:10D330000B4600240AB9002010BD1478012108E032
:10D34000501808B90020F7E7505C204484B2481C0C
:10D3500081B29942F4DB2046EEE7000010B502A04E
:10D36000FDF78AF810BD00007761726E696E673A4A
:10D370004275734661756C742048616E646C6572A9
:10D380000D0A000001464FF04022126A42F00102ED
:10D390004FF040231A6200BF4FF04022126A02F49D
:10D3A0008072B2F5807FF7D14FF04022526A22F0AE
:10D3B00003024FF040235A621A46526A5A6200BF73
:10D3C0004FF04022526A02F48072B2F5807FF7D1AA
:10D3D0005D4A5E4B1A60032906D11A1F126842F09B
:10D3E00080421B1F1A6007E0584A121F126822F081
:10D3F0008042564B1B1F1A60544A121D126822F4B9
:10D400007F0040F4C602514B1B1D1A6040F4B2026B
:10D410001A6040F40C121A6040F458021A6040F48A
:10D4200058021A604FF04022D26D22F0404040F086
:10D4300080424FF04023DA6540F00042DA6540F068
:10D440004042DA651A46D26D42F40022DA651A4685
:10D45000D26D22F04042DA6561B93D4A126802F0AD
:10D460007F42B2F1124F37D1394A126822F07F421F
:10D470009A6631E0022910D1354A0832126802F06A
:10D480007F42B2F1124F27D1314A0832126822F09E
:10D490007F424FF040239A661EE003290CD12C4AAC
:10D4A000FC3212682B4B9A4216D1294AF832126884
:10D4B0004FF040239A660FE0254A121D126802F0D1
:10D4C0007F42B2F1124F07D1214A121D126822F099
:10D4D0007F424FF040239A6600221C4B1B1D1A60AE
:10D4E0001A4A121F126822F08042184B1B1F1A6042
:10D4F000154A303A1B1D1A604FF04022126A42F062
:10D5000008024FF040231A6200BF4FF04022126A17
:10D5100002F40062B2F5006FF7D14FF04022526A78
:10D5200022F003024FF040235A621A46526A42F038
:10D5300001025A6200BF4FF04022526A02F40072A8
:10D54000B2F5007FF7D170473099D8D80438004041
:10D55000C00020083598746770B502460B46274D09
:10D560002D6845F08045254E3560351D2D78244EBB
:10D5700045EA0604224D3035204E361D3560214DDA
:10D580002D6845F2AA56B5421DD14FF04025296BB2
:10D5900053B102F004051DB1114321F004010DE067
:10D5A000114381F0040109E002F004051DB191432B
:10D5B00041F0040102E0914381F004014FF0402565
:10D5C00029635A2010E03BB14FF040252D6B1543E5
:10D5D0004FF04026356306E04FF040252D6B954314
:10D5E0004FF040263563FF20044D2D1D2C602D1F6C
:10D5F0002D6825F08045014E356070BD0038004033
:10D600000099D8D8A400200810B54FF04020006839
:10D610002C4908402C4908434FF0402108602B4812
:10D62000006840F20121884340F020004FF0402183
:10D63000C1F8C0000804C06940F084000904C86152
:10D6400000202249203908604FF0C37000F08FF9A4
:10D650001F484FF0402148638020886340201B49C9
:10D660002C39086000204FF04021086719484867AE
:10D670000846C06E1849084320F000504FF0402182
:10D68000C8661648006820F0F00040F040001349DA
:10D69000086013484FF04021C1F890000846006D23
:10D6A00040F4005008650846006D20F4805008657D
:10D6B00002230E220321084616F06EFE18F0D8FC55
:10D6C00010BD0000FFFF972300002840C04000402D
:10D6D00080000F00FF011000008000501C38004047
:10D6E000FF08880010B54FF040200068204908402E
:10D6F00040F0E3504FF0402108601E48006840F2BF
:10D70000212188434FF04021C1F8C0000804C069BE
:10D7100040F084000904C8611748164920390860A0
:10D720004FF0C37000F023F980204FF04021486390
:10D73000886340200F492C39086000204FF04021B9
:10D7400008670E4848670846C06E0D49084320F038
:10D7500000504FF04021C8660A48006820F0F000F1
:10D7600040F040000749086018F082FC10BD00003E
:10D77000FFFF9F23C040004013DF2800FF0110007F
:10D78000008000501C38004070B504460D4607204C
:10D7900003F066FD34B1012C2AD0022C50D0032CAA
:10D7A00076D176E04FF04020006A40F001004FF063
:10D7B0004021086200BF4FF04020006A00F48070F2
:10D7C000B0F5807FF7D14FF04020406A20F0030091
:10D7D0004FF0402148620846406A486200BF4FF05F
:10D7E0004020406A00F48070B0F5807FF7D179E086
:10D7F0004FF04020006A40F008004FF040210862DE
:10D8000000BF4FF04020006A00F40060B0F5006FE8
:10D81000F7D14FF04020406A20F003004FF0402144
:10D8200048620846406A40F00100486200BF4FF07D
:10D830004020406A00F40070B0F5007FF7D151E05D
:10D840004FF04020006A40F004004FF04021086291
:10D8500000BF4FF04020006A00F48060B0F5806F98
:10D86000F7D14FF04020406A20F003004FF04021F4
:10D8700048620846406A40F00200486200BF4FF02C
:10D880004020406A00F48060B0F5806FF7D129E055
:10D8900027E04FF04020006A40F010004FF0402198
:10D8A000086200BF4FF04020006A00F48050B0F5DD
:10D8B000805FF7D14FF04020406A20F003004FF026
:10D8C000402148620846406A40F00300486200BFB9
:10D8D0004FF04020406A00F40060B0F5006FF7D1CF
:10D8E00000E000BF00BF28461CF02AF870BD10B54C
:10D8F0000446012000F021F84FF04020C06D40F4B4
:10D9000000004FF04021C865102C05D10846006D7D
:10D9100040F4004008650CE04FF04020006D20F41A
:10D9200000404FF0402108650846006D64F3030095
:10D930000865002000F001F810BD01464FF04022BC
:10D94000D26D22F0404071B14FF04022D06540F0DE
:10D9500080424FF04023DA6540F00042DA6540F043
:10D960004042DA6502E04FF04022D065704710B5C2
:10D9700004460120FFF7E1FF4FF04020C06D204337
:10D980004FF04021C8650020FFF7D7FF10BD000011
:10D990002DE9F05F05460F46164698464FF0000AFF
:10D9A00036A0FCF769FD38A0FCF766FD00BFAB466A
:10D9B000D14606E01BF8091036A0FCF75DFD09F121
:10D9C0000109B945F6D335A0FCF756FD00BF34A0D8
:10D9D000FCF752FD00BFB3464FF0000906E01BF80C
:10D9E00009102CA0FCF748FD09F10109C145F6D347
:10D9F0002AA0FCF741FD00BF112F03DD4FF0FF30DF
:10DA0000BDE8F09F002409E0285D302802DB285D96
:10DA1000392802DD4FF0FF30F2E7641C062CF3DBFF
:10DA2000B8F1110F02DD4FF0FF30E9E7002409E003
:10DA3000305D302802DB305D392802DD4FF0FF30E9
:10DA4000DEE7641C062CF3DB18A0FCF715FD0020B4
:10DA5000E85506F8080029463046FCF785FF82465F
:10DA60009AF8001015A0FCF707FDBAF1000F01D0DD
:10DA70000020C5E74FF0FF30C2E7000043686B505D
:10DA800077643A0A0000000043686B5077642041D5
:10DA90003A0A000025303258000000000A20000039
:10DAA00043686B50776420423A0A000043686B5029
:10DAB00077642064617461204F6B0A0070746D702C
:10DAC0003A25640A0000000010B502460B4600210A
:10DAD00006E01078545CA04200D004E0481C81B2FB
:10DAE000581E8842F5DC00BF581E884202D14FF014
:10DAF000FF3010BD002108E0545C50184078401CF5
:10DB0000844200D004E0481C81B2581E8842F3DCF5
:10DB100000BF581E884202D14FF0FF30E9E70021D4
:10DB200008E0545C50184078401E844200D004E065
:10DB3000481C81B2581E8842F3DC00BF581E884240
:10DB400002D14FF0FF30D4E70020D2E710B5112307
:10DB5000054A06210548FFF71BFF08B9002010BD44
:10DB60004FF0FF30FBE700007C250020BE2A00209C
:10DB700010B51123054A06210548FFF709FF08B92A
:10DB8000002010BD4FF0FF30FBE700007C25002097
:10DB9000C62A002010B5002400BF16E00D4901EB95
:10DBA000C40011230C4A0621FFF7F2FE60B90949AF
:10DBB00001EBC400FF220821FCF7ECFF05484B38BD
:10DBC00008F0CCFF002010BD641C0A2CE6D34FF0F7
:10DBD000FF30F8E7DF2A00207C2500201CB50AA1D1
:10DBE00003C9CDE900010A48407C072802D04FF064
:10DBF000FF301CBD69460648FCF7B6FE08B10020A0
:10DC0000F7E74FF0FF30F4E732353837343531007D
:10DC10007C250020002004490968887900F0FE0076
:10DC200001490968887170473014002070B50446B6
:10DC30000025FE200D4908700220487008468470B7
:10DC4000201F05280BD2DFE800F0030506070900B6
:10DC5000212505E004E003E0162501E000E000BF17
:10DC600000BF2946024800F005F870BD0C070020EF
:10DC7000D528002070B505460E4600241748A0F8A8
:10DC80000360C07800021549B1F8031040EA112082
:10DC90001249A1F80300084601682960007928713B
:10DCA0000524A01984B2601E81B2681CFFF73EFBF8
:10DCB0000A49A1F809000846407A0002B1F80910A3
:10DCC00040EA11200549A1F809002819B1F8091006
:10DCD0000180A01C84B2204670BD00000C0700200B
:10DCE00030B530B9534C646A24F47F44514D6C62B2
:10DCF0001AE001280BD14F4C646A24F47F444D4D47
:10DD00006C622C46646A44F42A446C620CE002287B
:10DD10000AD1484C646A24F47F44464D6C622C4618
:10DD2000646A44F47F446C6232B9424C246A24F43D
:10DD30004034404D2C621AE0012A0BD13D4C246A3C
:10DD400024F440343B4D2C622C46246A44F40034C5
:10DD50002C620CE0022A0AD1364C246A24F44034A6
:10DD6000344D2C622C46246A44F440342C6233B97E
:10DD7000304C646A24F47F042E4D6C621AE0012B4F
:10DD80000BD12C4C646A24F47F042A4D6C622C461F
:10DD9000646A44F42A046C620CE0022B0AD1254C1C
:10DDA000646A24F47F04234D6C622C46646A44F454
:10DDB0007F046C6231B91F4C646A24F0FF041D4D6E
:10DDC0006C6222E001290FD11B4C1A4D80352C606A
:10DDD000184C646A24F0FF04164D6C622C46646A89
:10DDE00044F0AA046C6210E002290ED1124C114DCD
:10DDF00080352C600F4C646A24F0FF040D4D6C627A
:10DE00002C46646A44F0FF046C620A4C246844F0B7
:10DE10000544084D2C6000BF064C246804F0004403
:10DE2000B4F1004FF8D0034C246844F00104014DD4
:10DE30002C6030BD00500540FFFF1F0010B51CF0E6
:10DE40000FF810BD1C480068806A1B480068806C91
:10DE500000F00F0060B118480068806C00F00F00FF
:10DE6000164908600846006813490968C1F8980017
:10DE700011480068806A1049096888670E48006880
:10DE8000006B0D490968C1F880000B480068806B81
:10DE900009490968C1F8880007480068006C06490C
:10DEA0000968C1F8900004480068806C024909685C
:10DEB000C1F8980070470000E8130020F01300201C
:10DEC00010B538480068806A00F00F00F0B135489E
:10DED0000068806A00F00F0033490968084332493E
:10DEE0000860084600682F49096888672F4800685D
:10DEF000401E2F490968884203D02E480078012827
:10DF000004D1FFF70DFA00F073F810BD2548006842
:10DF1000006B00F00F0068B127480078012804D199
:10DF2000FFF7FEF900F064F8EFE721480068401CB5
:10DF30001F4908601B480068806C00F00F0060B14A
:10DF400018480068806C00F00F001C490860084603
:10DF5000006814490968C1F8980012480068806A8E
:10DF60001049096888670F480068006B0D49096807
:10DF7000C1F880000B480068806B0A490968C1F845
:10DF8000880008480068006C06490968C1F89000DC
:10DF900004480068806C03490968C1F8980000BF14
:10DFA000B3E70000E8130020EC1300204825002010
:10DFB000442500204C250020F4130020F0130020FD
:10DFC000044B1860044BC3F80C12024B1B1F1A8041
:10DFD0007047000008C2044000C0044000BF03486E
:10DFE000006800F001000028F9D1704704C2044025
:10DFF00011480068806A1049096888670E480068FF
:10E00000006B0D490968C1F880000B480068806BFF
:10E0100009490968C1F8880007480068006C06498A
:10E020000968C1F8900004480068806C02490968DA
:10E03000C1F8980070470000E81300207047000006
:10E0400010B5022004F0B4FAC4B20B480078A04224
:10E050000AD10948406828B107484068401E06496F
:10E06000486006E060B210BD0A20034948600846D7
:10E0700004704FF0FF30F6E79008002010B504461A
:10E08000022C08D104F094FA28B90348006810B1B2
:10E0900001480068804710BD9808002010B500BFF7
:10E0A0000021022003F00CFB0021022004F084F97F
:10E0B00000BF00BF0421022004F054F900BF10BDCE
:10E0C00010B500BF0021022003F0FAFA002102205F
:10E0D00004F072F900BF0021022003F0D9FC10BD4A
:10E0E00070B505460C46206828B904201BF00AFECE
:10E0F00010BB002070BD206890B105EB4501C1EB5D
:10E10000C5112068B0EBC10F0AD904201BF0FAFD3D
:10E1100090B90020206009A0FCF7AEF90120E9E7E2
:10E12000206848B105EB4501C1EBC5112068B0EB93
:10E13000C10F01D80220DDE70320DBE762756661CD
:10E140006E676A69616E636564616F72656E0D0A00
:10E150000000000000230B60064B1A7800BF8242CB
:10E1600004D84FF47A7353430B6001E000230B6033
:10E17000704700002041034070B505460C46294613
:10E1800011A02268FCF778F905EB4501C1EBC51138
:10E190002068B0EBC10F11D8206878B14FF47A71C4
:10E1A0002068B0FBF1F0C6B231460E4816F002FC12
:10E1B00029460C48103016F0FDFB03E0AA2109485F
:10E1C00016F0F8FB70BD000074696D653D25642C88
:10E1D0007379737469636B436F756E7465723D25F3
:10E1E000640D0A002041034010B5012200211748A8
:10E1F00018F054F800221146144818F038FA012299
:10E200001146124818F04AF8002201210F4818F070
:10E210002EFA01211D2003F053FA00211D2004F0E5
:10E2200091FA00BF002101201BF00AFC002101200F
:10E230001BF0DAFE00BF00BF022101201BF0A4FC8E
:10E24000012108461BF068FC00BF10BD00300140F2
:10E2500070B504460D462A4621460C2000F088F988
:10E2600070BD00000248B0F82A0600B270470000F6
:10E270008C850120014890F8220670478C8501208A
:10E2800010B54FF480610448FCF78CFC0020024973
:10E2900008390860486010BD9485012010B54FF41E
:10E2A00000710448FCF77EFC00200349C1F8080413
:10E2B00010BD0000988901208C8501202DE9F84FC0
:10E2C00005464FF00C094FF0000A4FF000085D4C76
:10E2D0002646FFF7E3FF00206081FE2020702878AB
:10E2E00060706878A070A878E07057A0FCF7C4F858
:10E2F00000BF04F1040B002705E01BF8071056A02F
:10E30000FCF7BAF87F1C062FF7D355A0FCF7B4F83A
:10E3100000BF06F10C00D5E90212FCF782FBE868A9
:10E3200098B1A88981B206F10C0000F033F9009091
:10E33000BDF80000C1B206F10C00EA688154BDF8D6
:10E340000000C1B247A0FCF797F8A889401C608183
:10E3500060890C304649C1F8080446A0FCF78CF8E7
:10E3600000BFDFF8E0B0002705E01BF807103AA077
:10E37000FCF782F87F1C3E48D0F80804B842F4D875
:10E3800037A0FCF779F800BFA87840B33C4800F00C
:10E39000D3F83B48016861608088208100F0DCF898
:10E3A000E070E178364800F07FF86089C11700EB33
:10E3B00011710911102202EB01111FFA81F8618914
:10E3C00030A0FCF759F8314B424606F10C01002011
:10E3D0001AF089F908F10C002549C1F80804A07A5F
:10E3E0000002618940EA112060812148B0F80804E8
:10E3F000401E81B2601C00F0CDF80090BDF8000016
:10E400000006000CBDF8001040EA112000901848EA
:10E41000D0F808043044BDF8001001801448D0F84A
:10E420000804801C1249C1F808040846D0F80814F2
:10E4300017A0FCF721F8287C00F0F0F80020BDE8D8
:10E44000F88F000098890120456E63727970744BD3
:10E4500065793A0A000000002530325800000000BB
:10E460000A20000063686B546D703A25580A00005A
:10E470008C8501206F6C6420646174613A0A00002D
:10E480008208002073697A6525640A00C28B012026
:10E49000636F6D6D436F6D2E636F6D2E7478436E79
:10E4A000743A25640A00000030B5024600201E4B75
:10E4B0001E4C246824681C6000BF06E01A4B1B5CDD
:10E4C000DB43194C2354431C98B20428F6DB164B4B
:10E4D00014685C6094881C81154C24682568C3F816
:10E4E0000A50A488DC81642391FBF3F403FB14132A
:10E4F0000A2493FBF4F3D9B2002011E0062390FB29
:10E50000F3F403FB140301EB41040A4D05EB44044F
:10E51000E35C054C245C6340034C2354431C98B2D9
:10E520001028EBDB30BD0000C28B012088080020E2
:10E530008C0800204008002070B50446002509F032
:10E5400059F900BF05E004F003FD2070641C681C4D
:10E5500085B2062DF7DB70BD70B5002509F04AF9CC
:10E5600005E004F0F5FCC4B20CB1204670BDF8E73C
:10E5700070B505460C46164614B94FF0FF3070BD15
:10E580000348411932462046FCF74BFA0020F6E7D3
:10E590009485012010B502460B4600240AB90020DC
:10E5A00010BD1478012108E0501808B90020F7E7E1
:10E5B000505C204484B2481C81B29942F4DB20466E
:10E5C000EEE700000EB54FF4E120009000208DF83A
:10E5D000040001208DF8070002208DF8060040207D
:10E5E0008DF8080069460C4817F0FAFE01211D203D
:10E5F00003F066F801211D2004F0A4F800BF0021FB
:10E6000001201BF01DFA002101201BF0EDFC00BFD2
:10E61000FFF736FE0EBD00000030014070B5064623
:10E620000E48D0F8081400F20C4000F0F3F90CA0EA
:10E63000FBF722FF00BF114D002404E0295D10A06C
:10E64000FBF71AFF641C0548D0F80804A042F5D86F
:10E650000DA0FBF711FF00BF002070BD8C850120CD
:10E660004452565F436F6D6D5F5061636B446174DC
:10E6700061416E6453656E643A0A00009889012016
:10E6800025303258000000000A2000002DE9F84F24
:10E6900000250024A146A2460C2000907A4E0027B7
:10E6A000A6F10800007AFE2875D1F07800287DD008
:10E6B000F178301DFFF7F8FEB07A0002718940EA68
:10E6C00011242046E11704EB11710911102202EB0D
:10E6D00001118DB205F10B0081B2701CFFF75AFFDA
:10E6E0000746394669A0FBF7C7FE314605F10D0024
:10E6F0000A5C084605F10C01405C02EB0020B842C0
:10E700004ED1654B2A4606F10C01002019F042FF5C
:10E7100062A0FBF7B1FE00BFB346C84606E01BF897
:10E72000081066A0FBF7A8FE08F101085648083853
:10E7300000684045F3D863A0FBF79EFE00BF601E53
:10E7400081B251480C30FFF725FF0746FAB204F1B9
:10E750000B004D49085C82421FD15BA0FBF78CFE89
:10E760005F48A0F5C0618A680262CA6842620969AE
:10E770008162A0F5C06090F82A060102424808387C
:10E78000B0F82A0641EA10213F480838A0F82A16B6
:10E790000020BDE8F88F74E008E06FF00200F8E7B1
:10E7A00050A0FBF769FE6FF00100F2E74C48A0F5BE
:10E7B000C0618A680262CA68426209698162A0F522
:10E7C000C06090F82A0601022F480838B0F82A06DF
:10E7D00041EA10212C480838A0F82A16B0F82A4639
:10E7E000254605F10B0081B2701CFFF7D3FE0746EA
:10E7F000394626A0FBF740FE234905F10D000A5CCF
:10E80000084605F10C01405C02EB0020B84232D111
:10E810003AA0FBF731FE00BFDFF86CB04FF0000804
:10E8200006E01BF8081025A0FBF726FE08F10108FA
:10E830001548083800684045F3D822A0FBF71CFEB5
:10E8400000BF601E81B210480C30FFF7A3FE0746E0
:10E8500039460EA0FBF710FEFAB204F10B000A498C
:10E86000085C824204D12AA0FBF706FE002090E754
:10E870006FF002008DE72AA0FBF7FEFD6FF00100AC
:10E8800087E74FF0FF3084E79485012063686B735E
:10E89000756D3A25580A0000C28B0120636F6D6DBB
:10E8A0002064656372797074207265766320646198
:10E8B0007461206D6F7665203A0000002530325873
:10E8C000000000000A200000636F6D6D2064656326
:10E8D000727970742063686B206F6B0A000000000F
:10E8E0008C8B0120636F6D6D206465637279707429
:10E8F0002063686B206572726F720A00636F6D6DC2
:10E900002020726576632064617461203A00000003
:10E91000636F6D6D2063686B206F6B0A00000000F1
:10E92000636F6D6D202063686B206572726F720A71
:10E930000000000008B500BF69461F48006817F0D6
:10E9400017FEC0B99DF800101C48026808308154B9
:10E9500008380068401C1949086008460068B0F58E
:10E96000806F04D31648FBF787FD012008BD012006
:10E97000124948601FE011484068C8B10F4840681C
:10E98000401C0E4948600846406814280ED30846CB
:10E99000006818B900204860801EE7E709A0FBF76F
:10E9A0006BFD0020054948600120DFE70020DDE71E
:10E9B0006FF00300DAE7BFE7380800208C850120FC
:10E9C000043003084452565F436F6D6D5F526563B8
:10E9D0007644617461556E626C6F636B204F4B0AB5
:10E9E0000000000010B501211A2002F069FE00218C
:10E9F0001A2003F0A7FE00BFC82002F0B5F900BF3F
:10EA000001211A2003F09EFE00BF642002F0ACF941
:10EA100000BF10BD70B504460D462A462146024887
:10EA2000006817F007FE70BD3808002010B50121FE
:10EA30001D2002F045FE01211D2003F083FE10BDC4
:10EA400010B54FF400610448FCF7CEF800200249ED
:10EA500008390860486010BD1C2D002004480021C2
:10EA60008181817300200349C1F8080870470000C4
:10EA700014350020142D002010B50121162002F0BD
:10EA80001FFE0021162003F05DFE10BD2DE9F041B0
:10EA900007460C4615461E46FFF7E0FF00F03EFB1A
:10EAA000384600F085F92946204600F009F800F0C4
:10EAB00025FB304600F092F90020BDE8F08100000F
:10EAC00070B505460C460949D1F8082801F60C0135
:10EAD000501822462946FBF7A4FF0448D0F808083E
:10EAE00020440249C1F80808002070BD142D002000
:10EAF0000A48B0F80808401F0009102202EB001075
:10EB000081B20A12054880F80E2880F80F18081DF7
:10EB1000024AC2F8080808B270470000142D00200D
:10EB200070B5A2B0064600201E901F902090219044
:10EB3000202116A8FCF758F8002516B9681E22B047
:10EB400070BD684608F0E2FE04223146684609F0CE
:10EB5000D9FA1EA9684608F0AFFE002422E01EA8DC
:10EB6000005D0511092D03DC05F13000C5B202E09E
:10EB700005F15700C5B216A800F814501EA8005D94
:10EB800000F00F05092D03DC05F13000C5B202E0ED
:10EB900005F15700C5B2012000EB440016A90D5441
:10EBA000601C84B2102CDADB002407E00548005D0D
:10EBB00016A9085C04490855601C84B2102CF5DBCA
:10EBC0000020BCE7C41803082037002010B5024617
:10EBD0000B4600240AB9002010BD1478012107E07B
:10EBE000501808B90020F7E7505C4440481C81B237
:10EBF0009942F5DB2046EFE770B505460C46164610
:10EC000014B94FF0FF3070BD034841193246204619
:10EC1000FBF707FF0020F6E71C2D00200348017BCF
:10EC2000C07A01EB002080B270470000142D002054
:10EC30000148807A70470000142D002070B504460A
:10EC40000D462A4621460620FFF7D6FF70BD70B557
:10EC500004460D462A4621460520FFF7CDFFC0B2E7
:10EC600070BD70B504460D462A4621460720FFF7C1
:10EC7000C3FF70BD70B504460D462A4621460520E7
:10EC8000FFF7BAFFC0B270BD10B5044674B900BF3B
:10EC9000002104201AF0D4FE002104201BF0A4F966
:10ECA00000BF002104201AF037FF13E000BF00214D
:10ECB00004201AF0C5FE002104201BF095F900BFC6
:10ECC00000BF032104201AF05FFF012104201AF085
:10ECD00023FF00BF10BD00000EB50121162002F079
:10ECE000EFFC0121162003F02DFD00BF00210320C1
:10ECF00002F0E6FC0021032003F05EFB00BF0021D0
:10ED0000032002F0C5FE012110201AF099FE012116
:10ED10001F2002F0D5FC002110201BF059F8012122
:10ED20001F2003F00FFD4FF4E130009000208DF81C
:10ED3000040001208DF8070002208DF80600402015
:10ED40008DF808006946024817F04AFB0EBD000026
:10ED500000D0014030B503460C46002A13DB2146A3
:10ED60000EE0581810B94FF0FF3030BD581810445D
:10ED700010B94FF0FF30F8E7585C5D18A854491EF1
:10ED80000029EEDA12E000210EE0581810B94FF019
:10ED9000FF30EAE75818104410B94FF0FF30E4E7AD
:10EDA000585C5D18A854491CA142EEDB0020DCE74A
:10EDB0000146044880F80E180520024AC2F80808E7
:10EDC00000207047142D002010B50121162002F0FC
:10EDD00077FC0121162003F0B5FC10BD2DE9F041B0
:10EDE000064600240027002E40D03BA0FBF744FB42
:10EDF00000BFDFF8FC80002505E018F805103DA0F5
:10EE0000FBF73AFB6D1C3D48D0F80808A842F4D83F
:10EE10003BA0FBF731FB00BF3848D0F80808811E43
:10EE200002223348801CFFF795FFFFF761FE04467E
:10EE3000344B22462E49091D002019F054FCA1B282
:10EE40002B48001DFFF7C2FE07462948211D4754E5
:10EE50002A48D0F80808401C2849C1F80808084684
:10EE6000D0F80818224800F03DF932E02348B0F805
:10EE70000808801E81B21E48801CFFF7A7FE0746C7
:10EE80001E48D0F808181A4847541C48D0F80808FB
:10EE9000401C1A49C1F808080846D0F80818144858
:10EEA00000F020F918A0FBF7E7FA00BFDFF8408078
:10EEB000002505E018F805100EA0FBF7DDFA6D1C23
:10EEC0000E48D0F80808A842F4D80DA0FBF7D4FAF1
:10EED00000BF0020BDE8F0814661636520656E6378
:10EEE000727970742073656E6420646174613A0095
:10EEF000203500202530325800000000142D00205D
:10EF00000A20000020370020466163652073656E8B
:10EF10006420646174613A002DE9F04706460024DC
:10EF2000A14600273D48007AEF2873D13B48407A3C
:10EF3000AA286FD1002E3DD03848C17A807A01EBE3
:10EF4000002084B2214635480C30FFF73FFE0746CB
:10EF500032480830211D405CB84228D1304B22464F
:10EF60002E490C31002019F015FB6FF00102611CD5
:10EF70002A480C30FFF7EEFE2AA0FBF77DFA00BF0F
:10EF8000DFF8988008F10808002505E018F805105A
:10EF90002AA0FBF771FA6D1C20480068A842F5D83A
:10EFA00028A0FBF769FA00BF0020BDE8F0876FF0EA
:10EFB0000100FAE71948017BC07A01EB002084B216
:10EFC000214616480D30FFF701FE0746134808306A
:10EFD000611D405CB8421AD11BA0FBF74DFA00BF7F
:10EFE000DFF8388008F10808002505E018F805105A
:10EFF00012A0FBF741FA6D1C08480068A842F5D83A
:10F0000010A0FBF739FA00BF0020CEE702E06FF056
:10F010000100CAE74FF0FF30C7E70000142D0020C1
:10F0200020370020666163652064656372797074BF
:10F03000207265766320646174613A00253032582D
:10F04000000000000A20000066616365207265769A
:10F050006320646174613A0008B500BF69461F48C7
:10F06000006817F085FA10B1012831D115E09DF83C
:10F0700000101B4802680830815408380068401CA2
:10F080001749086008460068B0F5006F01D30120F9
:10F0900008BD0020124948601DE011484068401C2E
:10F0A0000F4948600846006810B96FF00300EFE7A9
:10F0B0000B484068022809D30948006820B900209D
:10F0C00007494860801EE3E70120E1E70020DFE711
:10F0D0006FF00200DCE700BFC0E700005807002027
:10F0E000142D002070B504460D462A4621460248DC
:10F0F000006817F09FFA70BD5807002000210648ED
:10F10000B0F80808401F81B20A12034880F80F289F
:10F1100080F8101800207047142D0020EF200449BB
:10F1200081F80C08AA21024880F80D1800207047C9
:10F13000142D002010B50446012111201AF080FC86
:10F1400024B9002111201AF043FE03E0012111200F
:10F150001AF03EFE10BD000010B500BF00210320D4
:10F1600002F0AEFA0021032003F026F900BF00BF31
:10F170000221032003F0F6F800BF012200211A4803
:10F1800017F08CF800221146174817F070FA17A0F4
:10F19000FBF772F901221146134817F07FF800229D
:10F1A0000121114817F063FA14A0FBF765F901215A
:10F1B000162002F085FA0021162003F0C3FA13A0EE
:10F1C000FBF75AF901211C2002F07AFA00211C20D9
:10F1D00003F0B8FA012110201AF0FAFD00211F20D7
:10F1E00003F0B0FA10BD000000D001404D5F434174
:10F1F0004D5F52585F4F55545F300A004D5F434199
:10F200004D5F54585F4F55545F300A004D5F434186
:10F210004D5F504F575F454E5F4F55545F300A006A
:10F2200010B50121092002F04BFA0021092003F05A
:10F2300089FA01220221084816F084F800220221EE
:10F24000054816F0E2F9012111201AF0F9FB00211E
:10F2500011201AF0BDFD10BD0000014010B50121C4
:10F26000092002F02DFA0121092003F06BFA10BDEC
:10F2700010B50024074800220749836807209847F3
:10F28000044604F0010008B9002010BD6FF0010031
:10F29000FBE7000000C003086C4900202DE9F041A5
:10F2A00004460D46002720121B4981F83C020846FF
:10F2B00080F83D42291280F83E1280F83F5217A094
:10F2C000FBF7DAF800BFDFF86880002605E018F8E1
:10F2D000061018A0FBF7D0F8761C042EF7D317A061
:10F2E000FBF7CAF800BF16480422114983680620BC
:10F2F0009847074607F0010030B90021064880F81A
:10F3000018120020BDE8F0811021034880F818127F
:10F310006FF00100F6E700003047002066696E6775
:10F3200065724374726C2E6275666665723A0A0085
:10F330006C49002025303258000000000A200000EF
:10F3400000C0030810B550210020FFF7A7FF10BD33
:10F3500010B500BF002108461AF072FB00210846D4
:10F360001AF042FE00BF00BF022100201AF00CFC80
:10F37000012100201AF0D0FB00BF01220221174812
:10F3800015F0E0FF00220221144816F03EF9012298
:10F390001146124815F0D6FF002201210F4816F041
:10F3A00034F9012203210D4815F0CCFF002203217E
:10F3B0000A4816F02AF901220021084815F0C2FF78
:10F3C00000221146054816F020F901211B2002F009
:10F3D00077F900211B2003F0B5F910BD00100140A2
:10F3E00070B505460C46002620212848FBF7FCFB9B
:10F3F000002C25D16806010E254880F83D1200201A
:10F400001AF080FC012818D122A0FBF735F82C480F
:10F4100000221E49836802209847064629A0FBF770
:10F420002BF806F0010028B90021194880F81812BD
:10F43000002070BD6FF00100FBE74FF0FF30F8E7F0
:10F44000012C20D100201AF05DFC012818D128A041
:10F45000FBF712F81A4800220C49836803209847EA
:10F4600006462EA0FBF708F806F0010028B9002197
:10F47000074880F818120020DBE76FF00100D8E79A
:10F480004FF0FF30D5E76FF00100D2E76C49002064
:10F4900030470020434D443D2030204452565F46C3
:10F4A000696E6765725F47656E496D672062696E58
:10F4B0006C69625F617069206265666F72650A00DF
:10F4C00000C00308434D443D2030204452565F465F
:10F4D000696E6765725F47656E496D672062696E28
:10F4E0006C69625F6170692061667465720A000010
:10F4F000434D443D2031204452565F46696E676556
:10F50000725F47656E496D672062696E6C69625F04
:10F51000617069206265666F72650A00434D443D03
:10F520002031204452565F46696E6765725F4765B9
:10F530006E496D672062696E6C69625F61706920F7
:10F5400061667465720A00000048704748490020EF
:10F5500010B501211B2002F0B3F801211B2003F09C
:10F56000F1F820F02FFD1BF051F920F04DFB10BDFC
:10F5700001460022024880F818220020704700004F
:10F580003047002038B500200090002400BF002143
:10F5900008461AF055FA002108461AF025FD00BF6A
:10F5A000002108461AF0B8FAFFF7D2FF15F06BFFFA
:10F5B000054629461AA0FAF75FFF1F498869804768
:10F5C0001D480169012088471C481D4908601D48E5
:10F5D000486019484FF49E314269194890471648CF
:10F5E000416819488847044624B918A0FAF744FF2F
:10F5F000002038BD00208DF800000F480222694627
:10F6000083680B20984704462CB118A0FAF734FF02
:10F610004FF0FF30EDE71CA0FAF72EFF0020E8E7DF
:10F6200053504920464C4153482049442069733A7D
:10F6300025780D0A0000000000C0030844EEAA551A
:10F640008C490020998866A5E8280308496E6974EA
:10F650002062696E206C69627261727920737563D1
:10F660006365737366756C0D0A000000496E6974FA
:10F670002053656E736F7220506172616D20466118
:10F68000696C65640D0A0000496E69742073656ECB
:10F69000736F72207375636365737366756C2E2E5A
:10F6A0002E0D0A0010B500240FA0FAF7E5FE14484D
:10F6B00002221449836804209847044612A0FAF7EE
:10F6C000DBFE214616A0FAF7D7FE04F0010040B990
:10F6D00015A0FAF7D1FE0021194880F81812002071
:10F6E00010BD6FF00100FBE74452565F46696E673C
:10F6F00065725F5265674D6F64656C0A00000000BB
:10F7000000C003086C4900204452565F46696E678A
:10F7100065725F5265674D6F64656C410A00000059
:10F720007265733A25640A004452565F46696E67F3
:10F7300065725F5265674D6F64656C204F6B0A00A0
:10F7400030470020002070472DE9F04106460F4663
:10F75000904600250024134802221349836805209F
:10F760009847054605F00100A8B9104890F83D02F9
:10F770000E4991F83C1201EB810100EB410400219C
:10F780000A4880F81812211280F8191280F81A42DB
:10F790000020BDE8F0810921044880F818120020FB
:10F7A000F7E7000000C003086C4900203047002044
:10F7B00070B506460C46002520211148FBF714FAC7
:10F7C0006006010E0F4880F83D1290F83D0240F0AF
:10F7D00001010C4880F83D120B4802220849836859
:10F7E00004209847054605F0010028B90021054886
:10F7F00080F81812002070BD6FF00100FBE70000D8
:10F800006C4900203047002000C0030810B50446B2
:10F81000802104F10800FBF7E7F900202060606018
:10F8200010BD10B500BF002104201AF009F9002115
:10F8300004201AF0D9FB00BF002104201AF06CF953
:10F8400010BD00000EB5012110201AF0F9F80121B9
:10F850001F2001F035FF002110201AF0B9FA002115
:10F860001F2002F06FFFFFF7DCFF4FF416500090EF
:10F8700000208DF8040001208DF8070002208DF88B
:10F88000060040208DF8080069460248006816F01E
:10F89000A7FD0EBDA408002010B504201AF032FA0E
:10F8A00010BD000038B504460D4600BF69461A4831
:10F8B000006816F05DFE98B99DF8001004F108008C
:10F8C000226881542068401C20602068802804D36E
:10F8D00012A0FAF7D1FD012038BD0120606019E0C7
:10F8E0006068A0B16068401C60606068A8420CD38A
:10F8F000206818B900206060801EEDE717A0FAF7B5
:10F90000BBFD002060600120E6E70020E4E76FF027
:10F910000300E1E7CAE70000A40800204452565F54
:10F92000426C65436F6D6D5F5265637644617461CF
:10F93000556E626C6F636B20702D3E7278436E74EF
:10F94000203E3D204452565F434F4D4D5F52585F1D
:10F950004255465F53495A450A0000004452565FDB
:10F96000426C65436F6D6D5F52656376446174618F
:10F97000556E626C6F636B204F4B0A0070B5044686
:10F980000D462A4621460248006816F053FE70BD17
:10F99000A408002010B5012110201AF051F801210F
:10F9A0001F2001F08DFE002110201AF011FA012114
:10F9B0001F2002F0C7FE10BD10B5024819F0B4FBBD
:10F9C00010BD000024A4012010B5FF2416F036FC61
:10F9D000102829D2DFE800F0080A0C0E10121416C5
:10F9E000181A1C1E2022242601241EE00D241CE0CF
:10F9F0000C241AE0052418E0042416E0022414E084
:10FA0000072412E0032410E00B240EE006240CE08F
:10FA100000240AE0082408E0FF2406E0FF2404E0B4
:10FA20000A2402E0092400E000BF00BF204610BD08
:10FA300010B5012014F084FF014819F0F5FA10BD4B
:10FA400024A4012010B501210B2001F039FE012171
:10FA50000B2002F077FE0121182001F031FE002179
:10FA6000182002F06FFE0121172001F029FE00216D
:10FA7000172002F067FE01211E2001F021FE002167
:10FA80001E2002F05FFE01210C2001F019FE012171
:10FA90000C2002F057FE032000F0A3F810BD10B5B3
:10FAA00001210B2001F00CFE0121182001F008FEBD
:10FAB0000121172001F004FE01211E2001F000FEAB
:10FAC00000210B2002F03EFEC82001F04DF901217B
:10FAD000002000F019F800F007F810BD10B5012162
